:020000040800F2
:10000000883E002049010008F1140008E9140008A6
:10001000ED14000851120008011A00080000000049
:100020000000000000000000000000001916000899
:10003000B5120008000000001D1500081B1600087E
:100040006301000863010008630100086301000800
:1000500063010008630100086301000863010008F0
:1000600063010008630100086301000863010008E0
:1000700063010008630100086301000863010008D0
:1000800063010008630100086301000863010008C0
:10009000FD180008630100086301000863010008FF
:1000A00063010008311800086301000863010008BB
:1000B0006301000863010008630100086301000890
:1000C0006301000863010008630100086301000880
:1000D0006301000863010008991800086301000823
:1000E000B9120008630100086301000863010008F9
:1000F0006301000863010008630100086301000850
:10010000630100086301000863010008630100083F
:10011000630100086301000863010008630100082F
:10012000630100086301000863010008630100081F
:10013000DFF810D000F0AEFC00480047555600082C
:10014000AFF30080883E00200648804706480047FD
:10015000FEE7FEE7FEE7FEE7FEE7FEE7FEE7FEE777
:10016000FEE7FEE7251600083101000840EA01031A
:100170009B0703D009E008C9121F08C0042AFAD25D
:1001800003E011F8013B00F8013B521EF9D2704721
:10019000D2B201E000F8012B491EFBD270470022C9
:1001A000F6E710B513460A4604461946FFF7F0FF76
:1001B000204610BD70B5064601F054FC04680546A3
:1001C0000A220021304600F029FA2C6070BD2DE98A
:1001D000FE4F804681EA0300C00F0C46009021F0DC
:1001E000004123F00045B8EB0200A94105D240468A
:1001F000214690461C460B46024623F00040104321
:1002000047D0270DC7F30A00C3F30A510290401AE2
:10021000019040286BDAC3F3130040F4801B009870
:10022000924620B10023D2EB030A63EB0B0B01983B
:100230005946C0F14002504600F071F906460D469D
:1002400050465946019A00F089F910EB08006141C7
:10025000002487EA115284EAE7731A4340D0009AD7
:1002600062B3019A012A4FEA075215DC001B61EBC9
:1002700002014FF0004202EA0752CDE90042001CA1
:1002800041F5801132462B4600F06FFA03B0BDE80D
:10029000F08F40462146F9E7001B61EB0201001C8C
:1002A00041F5801300185B412018A2F5001747EBB9
:1002B000030140EAD570B6196D4111E06D084FEAAF
:1002C000360645EAC0754FEA0752001B61EB020192
:1002D000001C41F5801149084FEA300000195141D6
:1002E00032462B4603B0BDE8F04F00F02FBA00981D
:1002F000012240000023D0EB020263EBE073009880
:1003000021464FEAE074B8EB000061EB0401E9E735
:1003100083F000435BE781F0004158E72DE9FE4F91
:1003200081EA030404F0004421F0004100944FF0FE
:10033000000B23F0004350EA01045ED052EA0304AC
:100340005BD0C3F30A54C1F30A552C44A4F2F3342E
:100350000194A0FB0254C1F3130141F48011C3F3D3
:10036000130343F4801301FB024400FB034E840A91
:10037000970A44EA815447EA8357A4FB0768029529
:100380008D0A05FB07854FEA932C04FB0C542705C7
:10039000029D4FEA065847EA1637B5EB08056EEBA3
:1003A000070C870E920E47EA811742EA8312A7FBD9
:1003B0000201B6EB0B0164EB00042B0D43EA0C3396
:1003C0005E1844EB1C50DA465146E7FB0201C5F3C8
:1003D00013044FEA0B3343EA14534FEA0432019CEF
:1003E00043EA0603A4F10C040294009CCDE900B496
:1003F00000F0BBF903B0BDE8F08F00200146F9E73B
:10040000C1F30A5210B5C1F3130140F2FF3341F4B6
:1004100080119A4201DA002010BD40F233439A4223
:10042000A2F2334203DC524200F088F810BD904043
:1004300010BD00F0004230F000400AD0C10D01F5BF
:100440006071C0F3160042EA0151C208400711432F
:10045000704700200146704701F0004330B421F09E
:10046000004150EA010206D00A0DA2F56072C1F304
:100470001301002A02DC30BC00207047440F44EA1C
:10048000C104C100E01830BC00EBC25000F0FEB85F
:1004900030B50B46014600202022012409E021FA54
:1004A00002F59D4205D303FA02F5491B04FA02F551
:1004B0002844151EA2F10102F1DC30BD2DE9F05FE8
:1004C0000546002092469B468846064681464024C3
:1004D0001BE0284641464746224600F02FF8534687
:1004E0005A46C01A914110D311461846224600F0D0
:1004F00016F82D1A67EB01084F462246012000210D
:1005000000F00DF817EB00094E41201EA4F1010484
:10051000DFDC484631462A464346BDE8F09F202AA4
:1005200004DB203A00FA02F1002070479140C2F14A
:10053000200320FA03F3194390407047202A04DB7C
:10054000203A21FA02F00021704721FA02F3D0404C
:10055000C2F120029140084319467047202A06DB69
:10056000CB17203A41FA02F043EAE07306E041FA81
:1005700002F3D040C2F1200291400843194670476F
:100580000FB4002300B589B00CA900910B996FF04E
:100590000042CB601E4B06931E4B07930423CDE90C
:1005A00001321D4A089202466B46002000F026FBED
:1005B00009B05DF814FB70B586B006464FF0FF3009
:1005C0000091CDE90101002015460C460490324609
:1005D000694604A8FFF7D4FF02460498211825B104
:1005E00008B1084600E020462860049800280DD095
:1005F000002A02DD0098884208D0081B0094CDE94B
:1006000001043246694604A8FFF7BAFF06B070BD80
:10061000350E0008530E0008C10A00082DE9F04706
:1006200091460F4680460446002614F8015B2DB122
:1006300000F042FA0068405DC007F6D12B2D02D0D1
:100640002D2D18D0641E4A463946204600F012FC73
:1006500027B13968A14201D1C7F8008071054FF078
:1006600002040BD54042002803DD01F0FBF90460D1
:10067000A007BDE8F08746F48066E4E70028F8DAD2
:1006800001F0F0F904606FF00040F2E70029A8BF24
:100690007047401C490008BF20F00100704710B4AB
:1006A000B0FA80FC00FA0CF050EA010404BF10BC60
:1006B000704749B1CCF1200421FA04F411FA0CF18D
:1006C00018BF012121430843A3EB0C01CB1D4FEAC6
:1006D00000614FEA102042BF002010BC704700EBC1
:1006E000C35010440029A4BF10BC7047401C4900EF
:1006F00008BF20F0010010BC7047F0B400F00042C9
:1007000021F0004120F00040CE0DC30DC1F31601D1
:1007100041F40001C0F316004C42154640F40000BD
:10072000761E09E010EB440002D582F00042404200
:100730008842F7D840005B1EB342F9DA18B1F0BC2A
:100740000021FFF7ACBF2846F0BC704710B5141E5F
:1007500073F1000408DA401C41F1000192185B417A
:100760001A4301D120F0010010BD2DE9F04D924651
:100770009B4611B1B1FA81F202E0B0FA80F2203268
:100780009046FFF7CCFE04460F4640EA0A0041EAD5
:100790000B0153465A46084313D0114653EA010051
:1007A00019D0C8F140025046FFF7C8FE05460E4674
:1007B000504659464246FFF7B2FE084305D0012095
:1007C00004E020463946BDE8F08D0020054346EAA6
:1007D000E0762C4337430A986305E40AA0EB08004F
:1007E0000022FD0A44EA47540A3002D5002001469F
:1007F000E9E7010510196941DDE90845001969417A
:10080000BDE8F04DA2E72DE9F04D81EA030404F0C4
:10081000004B21F0004514464FF0000A23F0004140
:1008200050EA050220D054EA01021DD0C5F30A5750
:100830000246C5F31303C1F31300C1F30A5640F493
:10084000801543F48013A7EB0608101BD64608F268
:10085000FD3873EB050002D308F1010801E092189E
:100860005B41B8F1000F03DA00200146BDE8F08DCE
:1008700000204FF48011064684460EE0171B73EBF0
:10088000050705D3121B63EB050306434CEA010C75
:1008900049084FEA300092185B4150EA0107EDD158
:1008A00052EA030012D082EA040083EA05010843F9
:1008B00005D0101BAB4106D20122002306E0002226
:1008C0004FF0004302E06FF0010253101AEB0600F4
:1008D0004CEB085110EB0A0041EB0B01BDE8F04D69
:1008E000FFF734BF2DE9F041054621F000400C46EA
:1008F000284309D0C4F30A5040F23341884205DD51
:1009000028462146BDE8F0812846FBE740F2FE314B
:10091000884210DC0CDB4FEA043040EA155050EA04
:10092000053105D0104804F0004101430020E9E7FB
:1009300000200146E6E7A0F233404642C6F14002FD
:1009400028462146FFF7EBFD074688462846214604
:100950003246FFF7F3FD43463A46FFF7F7FE3246CD
:10096000BDE8F041FFF7DBBD0000F03F0EB5C10F61
:1009700080EAE0700844CA07002140F233438DE862
:100980000E000A460B46FFF7F0FE03B000BD70B53F
:10099000C1F30A5201F000450024C1F3130140F2F3
:1009A000FF3341F480119A4201DA002070BD40F219
:1009B00033439A42A2F2334203DC5242FFF7BEFDB8
:1009C00000E090402C43F1D0404270BDC1F30A5288
:1009D000C1F3130140F2FF3341F480119A4202DA6D
:1009E00000200146704740F233439A42A2F233425C
:1009F00002DC5242FFF7A2BDFFF791BD30B5041EE5
:100A000071F1000404DB4FF00044404264EB01014B
:100A1000141E73F1000405DB1C464FF000435242E4
:100A200063EB04038B4208BF824230BD30B5041E25
:100A300071F1000404DB4FF00044404264EB01011B
:100A4000141E73F1000405DB1C464FF000435242B4
:100A500063EB0403994208BF904230BD002801DBDC
:100A6000C0F10040002901DBC1F10041814202D206
:100A70004FF0004004E04FF0005001D14FF0C04073
:100A80004FEA2062EFF3008162F31F6181F3008877
:100A900070470000064C074D06E0E06840F0010397
:100AA00094E8070098471034AC42F6D3FFF744FBB4
:100AB0007486000894860008004870472486000861
:100AC00010B50446FFF7F8FF0068005D00F0010074
:100AD00010BD00002DE9FF4F087883B09946FF282C
:100AE00005D0491C2D2804D00024002008E0002057
:100AF0000BE00124F9E700EB800003EB4000491C08
:100B00000B78FF2BF7D104B14042002302931478F5
:100B100019461D462D2C01D02B2C04D1521C2D2CF6
:100B200013D000240294AA461478FF2C0FD00A2573
:100B3000A3FB057801FB05814FF0000C03FB0C11B2
:100B4000521CE3194AEB0101EEE70124EAE7814474
:100B500053EA010002D019F5C87F06DA0398002194
:100B6000C0E9001107B0BDE8F08F0025AE4E2F465A
:100B7000DFF8B882184600F0DAF9CDE90001B9F1E2
:100B8000000002DAC9F1000400E004460023A74A8D
:100B90001AEB030B42EB045A12E0E00707D02A4697
:100BA000334638464146FFF7B9FB074688462A4692
:100BB000334610461946FFF7B1FB05460E46641052
:100BC000002CEAD1DDE90001B9F1000F5A46534685
:100BD00006DAFFF718FE3A464346FFF714FE05E033
:100BE000FFF79CFB3A464346FFF798FB029A0AB18F
:100BF00081F00041039AC2E90001B3E72DE9FF4FFC
:100C00001F468DB0D7E901464FF0FF382E204546EC
:100C10004FF000090B90B9696D1C0E988847396A2E
:100C2000824688470028F6D1BAF1FF3F0AD024F463
:100C3000D064002E11DDBAF12B0F08D0BAF12D0FC0
:100C40000BD102E0404611B08DE744F48064B969ED
:100C50006D1C0E9888478246761E6946600501D550
:100C60002D2000E02B208DF8000001F1010B0DF18B
:100C7000200809E0B9696D1C0E98884782460F98D4
:100C800044F40074761E0560002E02DDBAF1300FC8
:100C9000F0D00B998A453ED144F0800406E00F99CC
:100CA000681CA9F1010944F400740860B9696D1C5D
:100CB000761E0E98884782463028F0D02BE00B999C
:100CC0008A4505D1200603D444F08004761E18E03E
:100CD000504601F04FFB08B30DF11301761E44F4AA
:100CE00000748B4508D2AAF130000BF8010B2006E6
:100CF00007D5A9F1010003E0200602D409F10100A3
:100D00008146A00502D50F99681C0860B9696D1C61
:100D10000E9888478246002ED1DC53E0002E51DD2C
:100D2000BAF1650F02D0BAF1450F4BD1A00549D5F4
:100D3000B9696D1C24F44074761E0E98884782466B
:100D4000002E0CDD2B2804D0BAF12D0F07D144F46E
:100D50008074B9696D1C0E9888478246761EE0053E
:100D600001D52D2100E02B2108F8011BCDF82C80A6
:100D700021E00DF12901761E44F4007488450CD25F
:100D8000AAF1300010F0FF0088F8000002D10B99A2
:100D9000884509D908F1010806E0E00501D5244895
:100DA00001E042F20F708146B9696D1C0E988847C8
:100DB00082460F980560002E04DD504601F0DAFAF5
:100DC0000028D6D1F9690E988847FF208BF80000DB
:100DD00088F800000020069007904B466A4608A954
:100DE00006A8FFF777FEA00502D46FF001002AE7FE
:100DF00014F0240F0AD0E00714D1DDE90612386898
:100E0000031D3B600068C0E900120BE0DDE906014C
:100E1000FFF722FB0146E00704D13868021D3A6063
:100E20000068016028460EE7000014400000F03F13
:100E3000F1D8FFFF426842B1016811F8013B23B1CC
:100E4000521EC0E90012184670470121C160881E79
:100E5000704742685AB1C368016843B983688B42DE
:100E600005D0491E521CC0E90012002070474FF007
:100E7000FF3070472DE9F05F824600780027154665
:100E80008B460AF10104B946302801D09DB113E028
:100E900014F8010B0127782803D0582801D045B158
:100EA0000AE00DB1102D07D10027102514F8010B11
:100EB00002E0082500E00A250026B0460EE005FB0A
:100EC000080005FB06F1012701EB10461FFA80F828
:100ED000B6F5803F00D3B94614F8010B294600F05F
:100EE00018F80028EBDABBF1000F05D00FB1641E33
:100EF00000E05446CBF80040B9F1000F06D000F0F6
:100F0000B1FD02210160C81EBDE8F09F48EA06401D
:100F1000FAE73A2800D2303820F02002412A01D3E3
:100F2000A2F13700884201D34FF0FF3070470EB571
:100F300040F2334202920022CDE900221346FFF72D
:100F400014FC03B000BD000000B587B00021784854
:100F500002F056FF7748009000208DF81800764880
:100F6000029001208DF8190040020190800003904A
:100F700000208DF81A0004200490800205906A4633
:100F800000216B4802F074FF0021694802F01FFF46
:100F90000021674802F002FF66484C3801F00CFE61
:100FA000664801F009FE4FF4803001F0D3FE0122C3
:100FB000110260484C3801F040FF002202215D48D8
:100FC0004C3801F03AFF012211025C4801F035FF74
:100FD00000220221594801F030FF002155484C38C9
:100FE00001F0DEFD0422012152484C3801F0B5FD2C
:100FF000012202214F484C3801F0AFFD00214F483B
:1010000001F0CEFD042201214C4801F0A6FD012291
:1010100002214A4801F0A1FD002306221946454855
:101020004C3801F0A5FE00230F22012141484C3825
:1010300001F09EFE0023072202213E484C3801F0B9
:1010400097FE0023082203213A484C3801F090FE15
:10105000002305221946394801F08AFE00230E229A
:101060000121364801F084FE002304220221334886
:1010700001F07EFE00230C2203212E484C3801F0A3
:1010800077FE4FF4602201212A484C3801F0EDFD33
:101090000122114627484C3801F0C8FD4FF4602268
:1010A0000121264801F0E1FD01221146234801F00B
:1010B000BDFD00230B2219461E484C3801F0F8FDF7
:1010C00000230A2219461D4801F0F2FD4FF4E042C8
:1010D000022118484C3801F0C8FD012202211548B0
:1010E0004C3801F0A3FD4FF4E0420221134801F017
:1010F000BCFD01220221114801F098FD0D484C3839
:1011000001F086FD0D4801F083FD0A484C3801F0DE
:1011100084FD0A4801F081FD012002F029FE054806
:101120004C3801F005FD054801F002FD07B000BD97
:10113000000002404C24014018000020002801401B
:1011400000B587B004213F4802F05AFE3E480090A7
:1011500000208DF818003D48029001208DF81900FC
:10116000000201908000039000208DF81A000120F9
:101170000490000305906A460421324802F078FE8C
:101180000421304802F023FE04212E4802F006FE1E
:101190002D484C3801F010FD012211022A484C382C
:1011A00001F04BFE0022022127484C3801F045FE99
:1011B000002125484C3801F0F3FC01221146224859
:1011C0004C3801F0CAFC012202211F484C3801F0C2
:1011D000C4FC00230D2219461B484C3801F0C8FD01
:1011E0004FF46022012118484C3801F03EFD0122E5
:1011F000114615484C3801F019FD00230D221946FF
:1012000011484C3801F054FD4FF4E04202210E48E1
:101210004C3801F02AFD012202210B484C3801F024
:1012200005FD09484C3801F0F3FC07484C3801F043
:10123000F4FC012002F09CFD03484C3801F078FCDE
:1012400007B000BD000402404C3C014000000020FB
:1012500000BFFEE70EB56946002002F08FFB144880
:1012600002F014F900208DF800008DF80100042030
:101270008DF8020003208DF8030000208DF8040093
:101280008DF805008DF8060001208DF8070000207C
:101290008DF808008DF809000620ADF80A006946AF
:1012A000034802F08BF90221014802F018FA0EBD42
:1012B00000640040704700000EB54FF4805003F00A
:1012C000CDFC4FF4805003F0CFFC00282AD11F48FA
:1012D00001680091416801910089ADF80800029A07
:1012E000009803F073F81949C88008460168009116
:1012F000416801910089ADF80800029A009803F056
:101300006CF8124908810846C088C0F380208880A4
:1013100008468088C0B108460289C1880CA000F048
:1013200071FB11E009480168009141680191008951
:10133000ADF80800029A009802F09AFE00200349D6
:1013400088800BA000F05EFB0EBD0000480B002063
:101350004661756C7420465352313A2025303478FA
:1013600020465352323A20253034780D0A000000CE
:101370005265636F766572790D0A000010B50C2115
:10138000002003F095FF02220021D00203F00AFCA6
:101390004FF4805003F062FC10BD000010B5012135
:1013A0004C4804F02FF801214B4804F02BF84FF47F
:1013B000A05301221821494803F0C6FF4FF40063EF
:1013C00001220421454803F0BFFF4FF400430122EE
:1013D0001021434803F0B8FF4FF40041404803F0A8
:1013E00065FF4FF42043012218213E4803F0ACFF73
:1013F0004FF48043012204213A4803F0A5FF4FF443
:10140000805301221021374803F09EFF4FF4805192
:10141000344803F04BFF4FF40063022210213048A0
:1014200003F092FF4FF48053032204212C4803F071
:101430008BFF4FF400612A4803F036FF4FF4E0635E
:1014400003221821264803F07FFF032304220021F2
:10145000224803F079FF012304220021214803F0F0
:1014600073FF0C23042200211C4803F06DFFF023BE
:10147000042200211A4803F067FF302304220021D0
:10148000164803F061FF4FF4005302221021134865
:1014900003F05AFF042301221821114803F054FFDE
:1014A0000823012204210E4803F04EFF01214FF4CE
:1014B000EA1003F0A7FF4FF4807302224821094885
:1014C00003F042FF4FF4007302221821054803F095
:1014D0003BFF10BD00102000000230000010014052
:1014E00000080140000C014000BFFEE700BFFEE71E
:1014F0007047000010B5002807DA0A07140E054AE5
:1015000000F00F031B1FD45403E00A07130E024A16
:10151000135410BD18ED00E000E400E0704710B572
:10152000012005F039FA4FF4C06005F017FB40F2D6
:10153000026005F013FB40F2036005F00FFB40F280
:10154000046005F00BFB4FF4A06005F007FB40F2D0
:10155000015005F003FB40F2197005F0FFFA40F26C
:101560000E7005F0FBFA40F20F7005F0F7FA40F24A
:101570000B6005F0F3FA40F2096005F0EFFA40F273
:101580000A6005F0EBFA40F20F6005F0E7FA40F26E
:10159000117005F0E3FA10BD00B587B00D4805F0F5
:1015A000DFFC4FF482700090002001904FF4006047
:1015B00002908010039000200490012005901020DC
:1015C00006906946034805F0FFFC024805F0BCFCA4
:1015D00007B000BD0038004000B587B00D4805F0E9
:1015E000BFFC4FF482700090002001904FF4006027
:1015F000029080100390002004900120059010209C
:1016000006906946034805F0DFFC024805F09CFCA3
:1016100007B000BD003C0040704710B502F0B2FBBF
:1016200010BD000008B52648006840F47000244949
:1016300008602448006840F001002249086000BFAB
:101640002048006800F002000028F9D000BF1D48C3
:10165000406840F080001B4948600020009002E094
:101660000098401C009000985028F9D31548406815
:1016700040F09000134948600020009002E000987C
:10168000401C009000985028F9D300BF0D484068D6
:1016900020F003000B494860084600680A490840EA
:1016A000084908604FF41F0088600846006820F46D
:1016B0008020086000204860C86205F0D1FD08BDA8
:1016C00088ED00E000100240FFFFF6FE00B58BB091
:1016D000564805F0A7FF04A806F091F80020ADF8E1
:1016E00010002020ADF812000020ADF814004FF4D7
:1016F000FA6006900020ADF8160001208DF81C005D
:1017000004A94A4806F002F8484806F04BF80021C0
:10171000464806F053F80121444806F057F843487C
:1017200005F0CAFD08A805F075FF0120ADF82000FE
:101730000020ADF822000220ADF824000020ADF812
:101740002600ADF82800ADF82A0008AA0021374885
:1017500005F0D0FD60220021344805F0EEFE0422A1
:101760000021324805F0BCFE082200212F4805F078
:1017700024FF002211462D4805F00CFF08AA012184
:101780002A4805F0B7FD60220121284805F0D5FE62
:1017900004220121254805F0A3FE08220121234847
:1017A00005F00BFF00220121204805F0F3FE08AAF6
:1017B00002211E4805F09EFD602202211B4805F013
:1017C000BCFE04220221194805F08AFE08220221EB
:1017D000164805F0F2FE00220221144805F0DAFE58
:1017E000684605F07DFD0020ADF80000ADF8020070
:1017F000ADF804004FF40050ADF806000020ADF83D
:101800000800ADF80A00ADF80C006946074805F07D
:1018100058FD0121054805F0E6FF0121034805F0C8
:10182000C6FF024805F06CFF0BB000BD002C014064
:1018300010B50121124805F0BEFF124800780228B9
:1018400003D10103104803F031FD104801F022FBE1
:101850009FED0F0A0F4804F06BFF0A4805F0F2F9FC
:101860000A48D0F8B400401C0849C1F8B400054843
:101870000078022803D10103034803F015FD10BDD1
:10188000002C0140580800200010014038050020BD
:10189000D1CB0B386808002010B50749074806F07F
:1018A000D9F940B1054806F075F9C4B2214604489B
:1018B00006F09AF800BF10BD050305000044004083
:1018C0005808002010B50C4806F06AF94FF4E131D1
:1018D000094806F017F90421074806F0D7F908214E
:1018E000054806F0DBF9044806F0A2F940F205319C
:1018F000014806F0A2F910BD0044004000B52DEDEE
:10190000028B83B0364A0021364801F0ECFE36489F
:1019100090ED180A3548D0ED110A80EE201AB0EE8D
:10192000418A314890ED030A3048D0ED110A80EE2B
:10193000201AF0EE418A2E4890ED110A2B48D0ED86
:101940000E0A20EE200AD0ED110A20EE200AB0EE99
:10195000401A28480179F0EE480AB0EE680A264895
:1019600004F07AFA24491F4801F030FF1C48D0F8EF
:101970000B00401C10BB1A48D0F80F0020F07F402D
:101980006FF07F41884219D11548807CFC2804D033
:10199000FD2807D0FE280FD109E06D21174806F079
:1019A00023F80AE01B21154806F01EF805E07A210D
:1019B000124806F019F800E000BF0DE00C48CC30EA
:1019C000019007480069009005480FC805F084FFA2
:1019D00000200749C1F8B80003B0BDEC028B00BD80
:1019E000743A0020006400406808002028000020AD
:1019F0003805002028010020603A00205808002007
:101A000000BFFEE70FB4054B10B503A9044A0298C6
:101A100000F0B8FC10BC5DF814FB00008B5100080E
:101A20001000002003B401984100009850EAC12042
:101A300018BF04204A0D18BF40F0010040F2FF72A9
:101A4000B2EB515F08BF40F00200012808BF05203B
:101A500002B07047014621F00040C0F1FF40C00FC6
:101A6000704700000048704714000020000000008C
:101A700030B583B0044600F09FFB9FED090B05468F
:101A80008DED000B002221466846FEF794FD2846A6
:101A900000F0A8FB9DED000B03B030BD000000007E
:101AA000000000000000000070B52DED020B2DEDD0
:101AB0000A8B82B00D98C40F20F00045AE488542D5
:101AC00048D3AE48854219D30C99C5F31300084397
:101AD00009D09DED0C0B02B0BDEC0A8B02B0BDE845
:101AE000704000F036BB002C14BF9FEDA50B9DEDA0
:101AF0000C0B02B0BDEC0A8B02B070BD9FEDA20BC7
:101B000053EC102B9DED0C0B51EC100BFEF78EFFE0
:101B10000AD2022000F066FB02B0BDEC0A8B02B0D4
:101B2000BDE8704000F020BB9FED990B53EC102BEB
:101B30009DED0C0B51EC100BFEF760FF0AD202205A
:101B400000F050FB02B0BDEC0A8B02B0BDE8704063
:101B500000F01ABB90489FED92BBA8425CD292481D
:101B6000854219D29148784400EBC40090ED000BF7
:101B700053EC102B9DED0C0B51EC100BFEF7C8FB3A
:101B800041EC1A0B8A48784400EBC40090ED009BAE
:101B9000C4F10100041B36E09FED870B53EC102BC2
:101BA0009DED0C0B51EC100BFEF7B8FB41EC100B4C
:101BB0008348784400EBC40090ED001B51EC100BFF
:101BC00053EC112BFEF703FBFEF7E1FE0446FEF794
:101BD000CDFE41EC180B9FED7C0B53EC102BFEF768
:101BE0009DFB9DED0C1B53EC112BFEF794FB41EC80
:101BF0001A0B9FED770B51EC180B53EC102BFEF7E3
:101C00008DFB41EC190B51EC1A0B53EC192BFEF721
:101C10007FFBCDE90C011BE06F48854217D29FED99
:101C2000700B53EC102B9DED0C0B51EC100BFEF7D1
:101C3000CEFA53EC1B2BFEF7F9FE08D29DED0C0BF0
:101C400053EC1B2B51EC100BFEF7C1FA6EE0002495
:101C50009DED0C0B53EC102B51EC100BFEF75EFBC3
:101C600041EC180B60480521B0EE480AF0EE680A16
:101C7000784400F0F2F953EC182B51EC100BFEF7FE
:101C80004DFB9DED0C1B53EC112BFEF744FB41EC7F
:101C9000180B9FED570B5CB353EC182B51EC100B4A
:101CA000FEF736FB9DED0C0B41EC1C0B53EC182B97
:101CB00051EC100BFEF732FB53EC1C2BFEF7A3FD8F
:101CC00053EC192BFEF727FB53EC1A2BFEF720FBE6
:101CD00053EC1B2BFEF71FFBCDE900016FF47F7067
:101CE000844226DB01EB045001909DED000B00E7E0
:101CF00053EC102B51EC180BFEF70AFB9DED0C0B6F
:101D000041EC190B53EC182B51EC100BFEF706FBB2
:101D100053EC192BFEF777FD9DED0C1B53EC112BAB
:101D2000FEF7F6FA53EC1B2BFEF7F5FA41EC100B1D
:101D3000DFE608464FF07A5101EB04519FED2E0B80
:101D4000084453EC102B01909DED000B51EC100B4F
:101D5000FEF7E4FA0D4645EC100B044651EC100B6F
:101D6000FFF760FE042808BF00F00EFA45EC104BA8
:101D7000BFE6000000000000422E86400000F07F19
:101D80000000000000000000EF39FAFE422E8640FD
:101D900051302DD5104987C0422ED63F000000009B
:101DA000000000000000F03FB2A2F03FEE6900002A
:101DB000DE69000000000000FE822B654715F73F3A
:101DC00092690000000000000000E0FE422EE63FA5
:101DD000763C7935EF39EA3D0000303E00000000E6
:101DE0009C7500883CE4377E046900000000000018
:101DF0000000000000000040000000000000700132
:101E000010B52DED028BB0EE608AF0EE408A18EE30
:101E1000101A18EE900AFEF721FE00F07040B0F1A3
:101E2000005F0CD018EE100A20F00040C0F1FF4017
:101E3000C00F02BFB0EE480ABDEC028B10BDB0EE81
:101E4000680ABDEC028B10BD10B52DED028BB0EE13
:101E5000608AF0EE408A18EE101A18EE900AFEF72B
:101E6000FDFD00F07040B0F1004F0CD018EE100AEC
:101E700020F00040C0F1FF40C00F02BFB0EE480AA2
:101E8000BDEC028B10BDB0EE680ABDEC028B10BD3C
:101E900010B52DED028BF0EE408A18EE900AB0EEF0
:101EA000608A20F00040C0F1FF40C00F07D118EE5B
:101EB000100A20F00040C0F1FF40C00F2BD018EEF8
:101EC000101A18EE900AFEF718FC00EE100A10EE39
:101ED000100A6FEAD05010F0FF0F04BFBDEC028B68
:101EE00010BD18EE900A00F0004110EE100A00F04C
:101EF0000040814204BFBDEC028B10BD18EE101AE9
:101F000010EE100ABDEC028B61F31E0000EE900A89
:101F100030EE600A10BD18EE900A4FF07F41B1EB31
:101F2000400F1CBF18EE100A5FEA4000C7D1012025
:101F300000F058F9BDEC028BBDE8104000F034B958
:101F400010B52DED020B2DED088B84B09DED0C0B23
:101F500051EC100BFEF7C6FC41EC180B9DED0C0B81
:101F600053EC182B51EC100BFEF7D2F941EC190B86
:101F70000D989FED290B10F0004F53EC102B51ECF6
:101F8000190B9FED21AB9FED22BB0ED0FEF736FD66
:101F90000ED953EC1B2B51EC190BFEF747FD1CD24D
:101FA00014E000BF41EC180B17E0FEF727FD06D246
:101FB00053EC1A2B51EC180BFEF7AAF9F2E753EC8D
:101FC0001B2B51EC190BFEF731FD06D853EC1A2BE5
:101FD00051EC180BFEF7FBF8E4E78DED028B9DED5D
:101FE0000C0B18EE901A10EE900A8DED000B61F3B9
:101FF0001E0003909DED020B04B0BDEC088B02B0F7
:1020000010BD000000000000000000000000F03FD4
:10201000000000000000E03F000000000000E0BF02
:1020200010B52DED028BB1EEC08A18EE100A20F02B
:102030000040C0F1FF40C00F0AD010EE100A20F09F
:102040000040C0F1FF40C00F04BF012000F0CAF8FB
:10205000B0EE480ABDEC028B10BD70B504462DED04
:10206000028B4D1E00EBC500B0EE408AF0EE608A98
:1020700090ED000B35F0060017D053EC182B51EC07
:10208000100BFEF74BF941EC100B6D1E04EBC50075
:1020900090ED001B51EC100B53EC112BFEF797F851
:1020A00041EC100B35F00600E7D1022D36D0042D9F
:1020B0001CD0062D1CBFBDEC028B70BD53EC182B41
:1020C00051EC100BFEF72AF994ED0A1B53EC112B7F
:1020D000FEF77DF853EC182BFEF720F994ED081B62
:1020E00053EC112BFEF773F841EC100B53EC182B4B
:1020F00051EC100BFEF712F994ED061B53EC112B6B
:10210000FEF765F853EC182BFEF708F994ED040B75
:1021100053EC102BFEF75BF841EC100B53EC182B33
:1021200051EC100BFEF7FAF894ED021B53EC112B57
:10213000FEF74DF853EC182BFEF7F0F894ED001B6A
:1021400053EC112BFEF743F8BDEC028B41EC100B66
:1021500070BD10B553EC102B51EC100BFEF737F897
:1021600041EC100B10BD00009FED050B10B553ECBA
:10217000102B51EC100BFEF7D1F841EC100B10BDF9
:1021800000000000000000709FED050B10B553EC3F
:10219000102B51EC100BFEF7C1F841EC100B10BDE9
:1021A0000000000000000010DFED020A80EEA00A2F
:1021B0007047000000000000014800687047000000
:1021C0001400002002E008C8121F08C1002AFAD13A
:1021D00070477047002001E001C1121F002AFBD1A7
:1021E000704700000149086070470000140000209B
:1021F0002DE9FF5F82B00021DDE90430020DDDF83A
:1022000040B0034318D044F61050A2F2FF324243CC
:102210001514119801281FD0A5EB0B00401C5FEA94
:10222000000A4FF000064E4FDFF83891B046504696
:1022300015D5CAF1000413E0119801244AA301281E
:1022400001D16FEA0B010298119AC0E90031C0E98F
:10225000024206B0BDE8F09FCBF10000DFE7044684
:102260000021404A491842EB0450CDE9001012E029
:10227000E00707D032463B4640464946FEF74EF857
:102280008046894632463B4610461946FEF746F8D8
:1022900006460F466410002CEAD1DDE90401DDE9B1
:1022A0000023BAF1000F06DAFEF738F842464B4633
:1022B000FEF734F805E0FEF7A6FA42464B46FEF775
:1022C000A2FA04460E460022284BFEF7AFFB03D8C5
:1022D0004FF0FF30014607E00022254B20463146F3
:1022E000FDF775FFFEF772FB102409E0002C0ADBF6
:1022F0000A220023FEF7E2F8039B30321A55641ECF
:1023000050EA0102F2D1641C039AC4F1110314448F
:10231000119A012A03D0012208430DD10AE0084393
:1023200004D000204FF0110B119072E7A3EB0B05C6
:102330006D1E0DE05B4504DD4FF0000205F1010567
:1023400004E003DA4FF00002A5F10105002AECD009
:1023500002981199C0E90231C0E9004579E700000F
:10236000000014400000F03F300000000000F04387
:102370000000E03F30380A2801D2012070470020D9
:10238000704700002DE9FF4F95B09A4688460646F3
:102390000025EEE1252877D100242746F94A0121BE
:1023A000039400E0044316F8013F203B01FA03F0D8
:1023B0001042F7D130782A2811D06FF02F033078EF
:1023C000A0F13002092A16D8039A44F0020402EB65
:1023D000820203EB42021044761C0390EFE758F8A8
:1023E000042B0392002A03DA504244F40054039071
:1023F00044F00204761C30782E2816D116F8010F0E
:1024000044F004042A280DD06FF02F023078A0F198
:102410003003092B09D807EB870302EB4303C718E6
:10242000761CF3E758F8047B761C30786C280FD0C4
:1024300006DC4C2817D068280DD06A2814D104E097
:10244000742810D07A280FD10DE044F400140AE06B
:1024500044F4801401E044F440147278824202D1C2
:1024600004F58014761C761C307866280BD013DCBB
:10247000582877D009DC002875D04528F6D04628A2
:10248000F4D047281AD193E118E0632835D06428A6
:1024900079D0652812D18BE1702873D008DC6728C9
:1024A000F1D069286FD06E280DD06F2806D1ACE02E
:1024B00073282CD0752874D0782853D05246179999
:1024C00090476D1C54E1C4F30250022809D0032840
:1024D0000DD0D8F8001004280DD00D6008F10408C4
:1024E00046E1D8F80010EA17C1E90052F6E7D8F83B
:1024F00000100D80F2E70D70F0E718F8041B8DF85E
:10250000001000208DF80100EB46012003E058F890
:1025100004BB4FF0FF3061074FF0000102D40DE023
:1025200009F101018946B9420FDA8145F8DB1BF850
:1025300009100029F4D108E009F10101894681421E
:10254000FADB1BF809100029F6D103985346A0EBDB
:10255000090721463846179A00F080FA284400EB14
:10256000090507E044E008E10DE01BF8010B5246C5
:1025700017999047B9F10109F7D2534621463846D9
:10258000179AF2E039E00A21C4F302524FF0000B2F
:102590000091022A06D058F8040BC117032A09D06B
:1025A0000AE023E008F1070020F00702F2E8020148
:1025B000904605E000B2C117042A01D140B2C1170C
:1025C000002906DA0A460021404261EB02012D2271
:1025D00002E0220504D52B228DF80420012203E01D
:1025E000E20701D02022F7E7914657E00A2100E0F8
:1025F00010214FF0000B00910BE010214FF0000B69
:1026000044F004040827009103E008204FF0000B79
:102610000090C4F30252022A05D058F8040B00219E
:10262000032A08D008E008F1070020F00702F2E8CA
:102630000201904603E080B2042A00D1C0B24FF0FC
:10264000000922072AD53278702A07D0DDF800C0A9
:102650008CF0100C5CEA0B0C05D00EE040228DF8DB
:102660000420012208E050EA010306D030238DF84F
:1026700004308DF8052002229146009B83F0080368
:1026800053EA0B030AD150EA010201D1620705D5D2
:1026900030228DF804204FF001097F1E3278582A2D
:1026A00004D039A20C920CAA02920BE03BA2F9E7EB
:1026B0005B46009AFDF702FF0C9B9B5C029A521E40
:1026C0000292137050EA0102F2D1029804A9081A8A
:1026D00000F1200B600702D524F4803400E00127CC
:1026E0005F4502DDA7EB0B0000E0002000EB0B01D3
:1026F000009003984944401A0390E00306D45346DF
:102700002146179A039800F0A9F90544002706E02E
:1027100001A85246C05D179990476D1C7F1C4F451C
:10272000F6DBE0030CD553462146179A039800F0D8
:1027300095F9054404E030205246179990476D1CE6
:102740000099481E00900029F5DC08E002980299E3
:1027500052460078491C0291179990476D1CBBF1B5
:102760000001ABF1010BF1DC5BE100F065F9054420
:10277000761C307800287FF40DAE19B02846BDE8ED
:10278000F08F0000092801003031323334353637FC
:1027900038396162636465660000000030313233AD
:1027A000343536373839414243444546000000004D
:1027B000600700D4062708F1070020F00700F0E8C2
:1027C0000223804603F0004C5FEA0C0001D097A082
:1027D00009E0200501D596A005E0E00701D095A00D
:1027E00001E0AFF24C001390307823F000436528ED
:1027F0000CD006DC452809D046281DD047287FD1BB
:102800003BE0662818D067287AD136E00021112FE6
:1028100001DB112000E0781CCDE9000104A90CA81F
:10282000FFF7E6FCDDE90D010C9A4FF0000B07F114
:102830000109109200914EE04FF000400097CDE961
:10284000011004A90CA8FFF7D3FCDDE90D020C9BD5
:102850000F994FF0000B91461093009211B9791C1B
:1028600000EB0109B7EB090003D4C0F1FF3B07F10E
:102870000109A9EB0700019042E0012F00DA0127CE
:102880000021112F01DD112000E03846CDE90001C3
:1028900004A90CA8FFF7ACFCDDE90D010C9A00912E
:1028A0004FF0000BB946109221070FD4009A4A4509
:1028B00003DA914601E0A9F10109B9F1010F05DD43
:1028C000109AA9F10101515C3029F4D0B84202DA22
:1028D00010F1040F03DA0121CDE9011010E0002806
:1028E00003DC8344A9EB000102E0411C494500DD03
:1028F0008946A0EB0B00401C01904FF00040029075
:10290000200705D40198484502DB4FF0FF300190C5
:1029100000208DF84B0002980DF14B07B0F1004FED
:1029200025D002200C902B200D90029800280CDA64
:10293000404202902D200D9007E00A210298FDF7F9
:10294000A7FD3031029007F8011D0C99481E0C902C
:102950000029F2DC02980028EFD1791E0D9808704A
:10296000307800F0200040F0450007F8020D11A873
:10297000C01BC01D02901398007800B1012000EB2D
:102980000901019801EBE071029801440398401A93
:10299000401E0390E00306D453462146179A03983D
:1029A00000F05CF805441398007818B15246179966
:1029B00090476D1CE00323D553462146179A039890
:1029C00000F04CF805441BE0BBF1000F07DB00985A
:1029D000584504DD1098179910F80B0001E017997D
:1029E00030205246904701980BF1010B401E05F133
:1029F0000105019004D12E205246179990476D1C75
:102A0000B9F10001A9F10109DEDC05E017F8010BBD
:102A10005246179990476D1C0299481E0290002952
:102A2000F4DC53462146179A03989EE62D000000D9
:102A30002B000000200000002DE9F0410446002595
:102A40001E461746880404D405E039462020B047C6
:102A50006D1C641EF9D52846BDE8F0812DE9F041D2
:102A6000044600251E469046C80301D5302700E0E5
:102A70002027880404D505E041463846B0476D1C40
:102A8000641EF9D52846BDE8F081000070B52DED33
:102A9000068BB0EE40AAB0EE609AF0EE419A044682
:102AA0000D461646B0EE4A0A01F050F9B0EE408AE3
:102AB000B0EE4A0A04F016FAF0EE408A28EE090A4F
:102AC00008EEE90A84ED000A9FED170A28EE800A55
:102AD000F6EE000A00EEC80A20EE090ADFED120A3F
:102AE00068EE200AB6EE001A41EE280A00EEA90AA6
:102AF00085ED000A9FED0D0A28EE800AF6EE000A29
:102B000000EEC80A20EE090ADFED080A68EE200A86
:102B1000B6EE001A41EE280A00EEA90A86ED000A78
:102B2000BDEC068B70BD0000D7B35D3FD7B35DBF72
:102B3000816841F00801816000BF816801F00801EF
:102B40000029FAD1816841F00401816000BF8168E9
:102B500001F004010029FAD1704730B5012902D0F3
:102B600002291AD10CE0C36A23F47003C362C36A5A
:102B7000541E4FF4700505EA04542343C3620DE06C
:102B8000836B23F440138363836B541E4FF440150F
:102B900005EA04542343836300E000BF00BF30BD57
:102BA00021B1826842F40062826003E0826822F40C
:102BB000006282607047000010B50446134820444C
:102BC00030B1B0F5806F0CD0B0F5C05F1BD111E013
:102BD00040F2093003F0E2FF40F2093003F0CEFF8B
:102BE00012E040F20A3003F0D9FF40F20A3003F05D
:102BF000C5FF09E040F20F3003F0D0FF40F20F3084
:102C000003F0BCFF00E000BF00BF10BD00DCFEBF52
:102C1000816841F4807181607047816801F0010131
:102C200019B9816841F001018160704772B101F00A
:102C300001031BB1836843F48013836001F0020336
:102C400093B1836843F4004383600DE001F0010316
:102C50001BB1836823F48013836001F002031BB16E
:102C6000836823F4004383607047012902D002295E
:102C700010D107E0836823F46023836083681343E3
:102C8000836008E0836823F4E04383608368134330
:102C9000836000E000BF00BF704702688A430260A3
:102CA00070470246002013680B4003B101207047B3
:102CB000F0B50C46876BC7F30156856BE71CBF1B4D
:102CC00007EB870C1F2707FA0CF7BD43E71CBF1B58
:102CD00007EB870702FA07F73D4385630A2A0DD2FF
:102CE000016902EB420C072707FA0CF7B94302EB24
:102CF000420703FA07F73943016112E0122A10D2A2
:102D0000C168A2F10A0707EB470C072707FA0CF77F
:102D1000B943A2F10A0707EB470703FA07F739435C
:102D2000C160F0BD02460B4633B1012B06D0022B29
:102D300006D0032B08D105E0D16B07E0116C05E04C
:102D4000516C03E0916C01E0002100BF00BF88B22C
:102D5000704700000549096821F47021034A116099
:102D600011460968014311607047000004240140C6
:102D7000F0B51D4606290CD2436B01EB81071F26D7
:102D8000BE40B34301EB810602FA06F633434363C8
:102D900022E00C290ED2036B8E1F06EB86071F263E
:102DA000BE40B3438E1F06EB860602FA06F6334397
:102DB000036311E010290FD2C36AA1F10C0606EBE0
:102DC00086071F26BE40B343A1F10C0606EB86061C
:102DD00002FA06F63343C3620A2A0CD2046902EBF4
:102DE00042070726BE40B44302EB420605FA06F648
:102DF0003443046111E0122A0FD2C468A2F10A061A
:102E000006EB46070726BE40B443A2F10A0606EBCE
:102E1000460605FA06F63443C460F0BD01F001022F
:102E20001AB1826842F48002826001F002021AB193
:102E3000826842F4001282607047AAB101F4807384
:102E40001BB1436843F48073436001F480631BB19A
:102E5000436843F48063436001F00203CBB18368AD
:102E600043F00203836014E001F480731BB14368F4
:102E700023F48073436001F480631BB1436823F43F
:102E80008063436001F002031BB1836823F00203F7
:102E90008360704710B504463548006850B900217A
:102EA0003448FFF73FFFA06000213348FFF73AFFA7
:102EB000E06009E000213048FFF734FFA060002106
:102EC0002C48FFF72FFFE06002212A48FFF7A6FFFA
:102ED00002212A48FFF7A2FF00BF04212548FFF77F
:102EE000E0FE0128F9D100BF04212448FFF7D9FEF4
:102EF0000128F9D104211F48FFF7CFFE04211F4804
:102F0000FFF7CBFE00211D48FFF70CFF206194ED79
:102F1000040AB8EEC00ADFED1A0A20EE200A84ED9A
:102F2000080AD4F89810A068401A00EE100AB8EE0B
:102F3000C00AD4ED1C0A20EE200A84ED060AD4F85B
:102F40009C10E068401A00EE100AB8EEC00AD4EDFA
:102F50001C0A20EE200A84ED070A94ED060AB1EE61
:102F6000400AD4ED070A30EE600A84ED050A10BD70
:102F7000280100200024014000280140003C0140BD
:102F80001833533C2DE9FF4F2DED028B83B00746DC
:102F90000D461446FB4890ED0A0AF3EE050AB4EE1E
:102FA000E00AF1EE10FA08DD1521F7A0FEF72AFD80
:102FB00003B0BDEC028BBDE8FF8F207C60B9FEA0A2
:102FC000FEF720FD012020740898E060B7EE000AAB
:102FD00084ED0A0A0020A084E1680898401A00EEF7
:102FE000100AB8EEC00ADFEDFE0A20EE200A84EDDA
:102FF000050A94ED050AF7EE000AB4EEE00AF1EED8
:1030000010FA22D29FEDF70A84ED020A94ED020A2B
:1030100042F62C40204480ED170ADA4890ED120A5F
:1030200085ED290A9FEDEF0A85ED2A0A42F62C402C
:103030002118284600F006FD97ED030A84ED060AE4
:1030400094ED050A84ED0A0AB2E7CE4890ED0A0A2B
:10305000DFEDE50A20EE200ADFEDE30A80EE201A1C
:10306000B7EE000A31EE000AD4ED050AB4EEE00A2C
:10307000F1EE10FA75DD94ED020ADFEDDC0A30EEB8
:10308000200A84ED020A94ED020A42F62C40204404
:1030900080ED170A42F62C402118284600F0D2FC99
:1030A00094ED050AD4ED0A0AB4EEE00AF1EE10FA46
:1030B00056DD94ED020ADFEDCE0A20EE200AB1487B
:1030C000D0ED0A0A9FEDC81A60EE810A80EE201A40
:1030D000BDEEC10A10EE109A786FA0EB090A4FEA14
:1030E000DA704FF4803101FB00A1A28C04F12C00B6
:1030F00040F8221094ED020A10EE101A0846FDF76F
:1031000098F941EC180B8DED008BA28C04F12C008A
:1031100050F8223011464A46B6A0FEF773FC94EDF3
:103120000A0ADFEDB80A30EE200A84ED0A0AA08C04
:1031300000EE100AF8EE400A924890ED0A1ADFED10
:10314000B21AB7EE000A11EE210AF4EE400AF1EECF
:1031500010FA01D12CE704E0A08C401CA08400BF31
:1031600026E7884890ED0A0ADFEDA80A60EE200AFB
:103170009FED9D1A80EE810AF7EE000A30EE200ADC
:10318000D4ED050AB4EEE00AF1EE10FA76DD94ED26
:10319000020ADFED960A30EE600A84ED020A90ED35
:1031A000120A85ED290A9FED8F0A85ED2A0A94ED12
:1031B000020A42F62C40204480ED170A42F62C40C9
:1031C0002118284600F03EFC94ED050AD4ED0A0AC9
:1031D000B4EEE00AF1EE10FA4EDDA08C00284BDDD3
:1031E00094ED020ADFED820A20EE200A6548D0ED58
:1031F0000A0A9FED7D1A60EE810A80EE201ABDEE6C
:10320000C10A10EE10AA786FA0EB0A094FEAD97034
:103210004FF4803101FB0099A28C04F12C0151F88C
:10322000221001EB090000EBD0714A10A38C04F1CD
:103230002C0141F8232094ED020A10EE101A0846E2
:10324000FDF7F7F841EC180B8DED008BA28C04F123
:103250002C0050F822301146524666A0FEF7D2FBF1
:10326000A08C401EA08494ED0A0ADFED660A30EEC1
:10327000200A84ED0A0A00BF9AE6FFE7284603F019
:103280009DFC4FF00008002005E004F12C0151F8EE
:1032900020108844401C3B4991ED0A0ABDEEC00A4B
:1032A00010EE101AB0EBC11FEFDB364890ED0A0AA2
:1032B000DFED550A60EE200A00EE108AB8EEC00A73
:1032C00080EE201ABDEEC10A84ED070A8026E16A6D
:1032D000C1F58031C801C11700EB114109140291F9
:1032E0004FF00009C1E04FF0000B704200EBD072CC
:1032F000511099E0234AD2ED0A0A00EE109AB8EE76
:10330000C00A20EE800ADFED400A20EE200A9FED81
:103310003E1AC0EE010A00EE101AB8EEC00A30EEF6
:10332000800ABDEEC00A10EE100A00280EDAD2EDB7
:103330000A0A00EE100AB8EEC00A9FED331A01EE39
:10334000200ABDEEC00A10EE100A67E00D4A92EDA9
:103350000A0A9FED2D1AF7EE000A51EE000A00EE60
:10336000100AB8EEC00AF4EEC00AF1EE10FA55D217
:10337000D2ED0A0A00EE100AB8EEC00A9FED221A3A
:1033800046E0000028000020506F6C652050616905
:103390007273203E2025642C2072656D616C6C6F09
:1033A00063206572726F725F6172725B5D20736918
:1033B0007A652E0D0A0000005374617274696E679D
:1033C000206F66667365742063616C20616E642093
:1033D0006C696E656172697A6174696F6E0D0A005D
:1033E000D1CB0B3800000000DB0FC9405F975B3981
:1033F00000008047256420256420256420252E3385
:10340000660D0A000000003C00000043DB0F49414C
:1034100001EE600ABDEEC00A10EE100A04F12C02A3
:1034200052F820209344491C06EBD672B1EB620F90
:10343000FFF660AF9BFBF6FB029800EB090ABAF1BE
:103440007F0F01DDAAF1800AE069ABEB000042F6D4
:103450002C21214441F82A00E069ABEB00025146DF
:1034600007A0FEF7CFFA09F10109B9F1800FFFF6C5
:103470003AAF00202074012084F8220000BF97E5B5
:103480002564202025640D0A0000000010B50446C4
:103490000548844207D140F2194003F07FFB40F217
:1034A000194003F06BFB10BD0064004010B5002113
:1034B000837A012202FA03F13E4A126842F00102C5
:1034C0003C4B1A603B4A1C3212688A43394B1C330E
:1034D0001A60C289DAB9374A0C3212688A43354B0E
:1034E0000C331A60C288344B03EA024243881A4301
:1034F0004389304C403444F8332082882E4B03EA11
:10350000024203881A43438904EBC3035A60C28909
:10351000012A1BD1274A0C3212680A43254B0C336F
:103520001A600288244B03EA024243881A43438903
:10353000204C403444F8332082881F4B03EA024277
:10354000C3881A43438904EBC3035A6082893AB99A
:10355000184A121D12688A43164B1B1D1A6006E09A
:10356000144A121D12680A43124B1B1D1A6002896D
:103570003AB9104A143212688A430E4B14331A6057
:1035800006E00C4A143212680A430A4B14331A60DC
:10359000027C012A06D1074A1C3212680A43054BF5
:1035A0001C331A60034A126822F00102014B1A60B0
:1035B00010BD0000006600400000FFFF70B502462D
:1035C0004FF6FF730020146824F00204146014689E
:1035D00044F00104146000E05B1E546804F0010430
:1035E0000CB9002BF8D1546804F001040CB9002088
:1035F00074E00C784FF0404505EA84744D784FF044
:10360000407606EA05652C438D784FF4702606EA6D
:1036100005452C43CD784FF4E00606EA05552C43CA
:103620004D896D1EC5F309052C43D4610C79012C1D
:1036300004D1146844F08004146003E0146824F09A
:10364000800414604C79012C04D1146844F04004C7
:10365000146003E0146824F0400414608C79012C99
:1036600004D1146844F02004146003E0146824F0CA
:1036700020041460CC79012C04D1146824F01004C7
:10368000146003E0146844F0100414600C7A012CF8
:1036900004D1146824F00804146003E0146844F0B2
:1036A000080414604C7A012C04D1146844F004041A
:1036B000146003E0146824F004041460146824F017
:1036C000010414604FF6FF7300E05B1E546804F0C1
:1036D00001040CB1002BF8D103B1012070BD426987
:1036E0000A434261704710B500F5D87303EB01132C
:1036F0001B6803F004031372137A3BB900F5D87307
:1037000003EB01131B685B0D136006E000F5D87333
:1037100003EB01131B68DB08536000F5D87303EB60
:1037200001131B6803F00203537200F5DA7303EB15
:1037300001131B681B0AD37400F5DA7303EB011342
:103740001B6803F00F03937200F5DC7303EB0113A6
:103750001B68D37200F5DC7303EB01131B681C0AB2
:10376000147300F5DC7303EB01131B681C0C54731A
:1037700000F5DC7303EB01131B681C0E947300F55A
:10378000DE7303EB01131B68D37300F5DE7303EBE9
:1037900001131B681C0A147400F5DE7303EB01139C
:1037A0001B681C0C547400F5DE7303EB01131B68DB
:1037B0001C0E947421B9C36843F02003C36003E076
:1037C000036943F02003036110BD000030B50246D9
:1037D0000B460021906800F08060B0F1806F00D14E
:1037E00010E0906800F00060B0F1006F01D101219D
:1037F00008E0906800F08050B0F1805F01D10221B4
:1038000000E00321032901D1032030BD02F5C0707F
:1038100000EB0110006800F0010402F5C07000EB3D
:1038200001100460187A88B918883B4C04EA4050AB
:103830005C7A204302F5C07404EB01142468204331
:1038400002F5C07404EB0114206013E06FF007046C
:10385000586804EAC0001C7A20435C7A204302F5D1
:10386000C07404EB01142468204302F5C07404EB17
:103870000114206002F5C27000EB0110006820F016
:103880000F0402F5C27000EB0110046002F5C27073
:1038900000EB011000689C7A204302F5C27404EB2F
:1038A00001142060987B4FF07F4404EA00605C7B49
:1038B0004FF47F0505EA044420431C7B2D1205EAE2
:1038C00004242043DC7A204302F5C47404EB011481
:1038D0002060987C2C0404EA00605C7C2D0205EAE0
:1038E000044420431C7C2D1205EA04242043DC7B85
:1038F000204302F5C67404EB0114206002F5C07089
:1039000000EB0110006840F0010402F5C07000EB0C
:1039100001100460084678E70000E0FF10B586B0AB
:1039200004462146032000F029F801A9012000F0F7
:1039300025F8114840684FF6FF7101EA4010ADF8D4
:1039400004000020ADF806004FF6E070ADF8080066
:103950000020ADF80A00ADF80C00ADF80E00ADF88F
:1039600010000120ADF812008DF8140001A8FFF737
:103970009DFD06B010BD00002801002010B50246D4
:1039800009B900BFFEE732B1012A16D0022A20D0C1
:10399000032A41D12EE000234B71CB718B7140F291
:1039A000FF334B8100230B724B7002238B7000237B
:1039B000CB700B714B720B7030E00123CB81002375
:1039C0000B740B810B804B808B80CB808B814B8168
:1039D00024E0002005E0002401F10B031C54431CEB
:1039E000D8B20828F7D300238B724B600B724B724E
:1039F0000B6013E0002005E0002401F10B031C54D0
:103A0000431CD8B20828F7D300238B724B600B728B
:103A1000CB744B720B6001E000BFFEE700BF10BD2E
:103A200010B5044621460220FFF7A8FF044880682D
:103A3000206000206060607220720620A07210BDBD
:103A40002801002070B52DED068B04460D4695ED3E
:103A5000170A84ED0B0A95ED190A84ED0D0A95ED10
:103A6000180AB248D0ED110A80EE201A84ED0C1A23
:103A700095ED030AD0ED110A80EE201A84ED0A1AA2
:103A800094ED072AF0EE421A94ED062AB0EE421A9F
:103A900094ED052AF0EE420A94ED0B2AB0EE420AAC
:103AA00004F14001081F00F087FA94ED110ADFEDE0
:103AB000A00A20EE200AD4ED100A9FED9E1A01EE16
:103AC000200A84ED110A94ED120ADFED990A20EE26
:103AD000200AD4ED0F0A9FED971A01EE200A84ED1B
:103AE000120A94ED090ADFED920A20EE200AD4EDC5
:103AF000080A9FED901A01EE200A84ED090A94ED60
:103B0000090ADFED8D0A20EE200ADFED8C0A20EE97
:103B1000200ADFED8B0A20EE200A84ED380A834864
:103B200090ED030A84ED3C0AD4ED3C0AB0EE600A45
:103B300004F1A801081F01F05DFD94ED290AD4ED00
:103B40000F0A30EE600AB0EE408A94ED2A0AD4EDF6
:103B5000100A30EE600AF0EE408A9FED7A0AF0EE2D
:103B6000409A9FED780AB0EE40AA94ED230AD4ED76
:103B70001D0A00EE880A30EE290A84ED140A94ED3D
:103B8000381AF0EE410A94ED141AB0EE410A01F031
:103B90008AF8F0EE40AA94ED380AB1EE400AF0EE51
:103BA000400AB0EE6A0A01F071F884ED140A94ED4F
:103BB0001D0AD4ED1F0A60EE200A94ED230A00EEE0
:103BC000880A84ED230A94ED381AF0EE410A94ED48
:103BD000231AB0EE410A01F066F8F0EE40AA94ED27
:103BE000380AB1EE400AF0EE400AB0EE6A0A01F07F
:103BF0004DF884ED230AD4ED380A60EEA00A94ED66
:103C0000141AD4ED141A41EE610AB0EE600AFEF700
:103C100007FAB0EE409A94ED240AD4ED1E0A00EEA5
:103C2000A80A30EE0A0A84ED150A94ED1E0AD4EDB6
:103C3000200A60EE200A94ED240A00EEA80A84ED22
:103C4000240A94ED381AF0EE410A94ED241AB0EEED
:103C5000410A01F028F8F0EE40AA94ED380AB1EEDE
:103C6000400AF0EE400AB0EE6A0A01F00FF884ED67
:103C7000240AD4ED140A60EEA00A94ED151AD4EDCE
:103C8000151A41EE210AB0EE600AFEF7C9F984ED7B
:103C9000390AD4ED150AB0EE600AF0EE490A01F0D7
:103CA00002F8F0EE40AAF1EE490A00F0EFFF84EDD1
:103CB000150AD4ED380AB0EE600A04F15401081F69
:103CC00001F098FCD4ED0B1A94ED0D2ADFED1E2ABD
:103CD00042EE821AB0EE610AD4ED151AB0EE611A06
:103CE000D4ED141AF0EE610A04F16C02111F081FE2
:103CF000FEF7CCFE94ED1B2AF0EE421A94ED1A2A40
:103D0000B0EE421A94ED192AF0EE420A94ED382AE8
:103D1000B0EE420A04F16002111F081F03F08AF995
:103D2000204603F061F8BDEC068B70BD2800002032
:103D30006666663FCDCCCC3D3333933FD7A3703F0F
:103D40003ACD133F00000000BAB1513810B52DED47
:103D5000028BB0EE408ADFED050A70EEC80AB0EEC5
:103D6000600A03F0BFF8BDEC028B10BDDB0FC93F4A
:103D70000349086000BF024909680029FBD1704768
:103D8000080000200448006820B103480068401E75
:103D900001490860704700000800002070B5054622
:103DA0000C462146284600F0FBF808B900BFFEE7A4
:103DB00004EB8400810005F10800405840F0010147
:103DC00004EB8400820005F10800815070BD70B5DD
:103DD00005460C462146284600F0E2F808B900BF27
:103DE000FEE704EB8400810005F10800405840F034
:103DF000200104EB8400820005F10800815070BDB1
:103E000070B504460D462946204600F0C9F808B9A9
:103E100000BFFEE705EB8500810004F10800405873
:103E200020F0010105EB8500820004F108008150BB
:103E3000002105EB8500820004F10800815005EBAC
:103E40008500820004F10C00815005EB85008200A2
:103E500004F11000815005EB8500820004F114008C
:103E600081506068AA000F2191400843606070BDD6
:103E70002DE9F04104460D4616462946204600F03D
:103E80008FF808B900BFFEE705EB8500820004F15A
:103E900010003168815005EB8500820004F11400A8
:103EA000B1688150308A81B205EB8500820004F14F
:103EB0000C00815005EB8500810004F10800475893
:103EC00027F47C57F1687068084371690843074319
:103ED00005EB8500810004F108004750307E012881
:103EE0000ED105EB8500810004F10800405840F038
:103EF000400105EB8500820004F1080081500DE0CF
:103F000005EB8500810004F10800405820F04001D5
:103F100005EB8500820004F108008150707E0128C5
:103F20000ED105EB8500810004F10800405840F0F7
:103F3000800105EB8500820004F1080081500DE04E
:103F400005EB8500810004F10800405820F0800155
:103F500005EB8500820004F108008150B07E70B945
:103F600005EB8500810004F10800405820F01001A5
:103F700005EB8500820004F1080081500DE005EB9F
:103F80008500810004F10800405840F0100105EB65
:103F90008500820004F108008150BDE8F081000036
:103FA00002460120034B9A4202D1042900DD002081
:103FB000704700000004024070B52DED068BF0EE56
:103FC00040AAB0EE609AF0EE419AB0EE61AA0446C3
:103FD0000D46B0EE6A0AFFF7B9FEB0EE408AB0EEC9
:103FE0006A0A02F07FFFF0EE408A9FED1E0A28EE7B
:103FF000800AF6EE000A00EEC80A20EE290A08EE52
:10400000090ADFED190A68EEA00AB6EE001A41EEC1
:10401000480A00EE8A0ADFED150A20EE200A84ED38
:10402000000A9FED100A28EE000AF6EE000A00EEE4
:10403000A80A20EE290AF1EE680A00EE890ADFEDEF
:104040000A0A68EE200AB6EE001A41EE280A00EECF
:104050008A0ADFED060A20EE200A85ED000ABDEC93
:10406000068B70BDD7B35D3FD7B35DBFABAA2A3F08
:1040700017B581B0022301A807C800F0B5F940F0D8
:1040800001040223009401A807C800F035FA1FBDFF
:1040900017B581B0022301A807C800F0A5F940F0C8
:1040A00004040223009401A807C800F025FA1FBDEC
:1040B00017B581B0022301A807C800F095F920F0D8
:1040C00004040223009401A807C800F015FA1FBDDC
:1040D00017B589B02D4890ED030ADFED2D0AB4EE37
:1040E000E00AF1EE10FA01D8032000E002200446B5
:1040F0004FF40061274801F0D9F80A20FFF738FE95
:104100000120002104910591CDE906100846012106
:10411000002200921346CDE90121039009A807C8A7
:1041200000F0ACF900200121049105910122CDE9B4
:104130000610CDE900200346CDE9024009A807C8D2
:1041400000F078F9144803F0CDFD002004900590AC
:1041500006900790012000218DE813000B46039084
:1041600009A807C800F066F9052001210023CDE960
:1041700000310B46CDE9021009A807C800F0A2F9EA
:1041800009A807C8FFF784FF0CB010BD2800002065
:104190000000204200080140380500207FB51E467F
:1041A0009DE8070000F012F904469DE8070000F0C2
:1041B00014F9054644EA0500002803DD314644A011
:1041C000FDF720FC04F4806010B146A0FDF71AFC56
:1041D00004F4007010B146A0FDF714FC04F48070E4
:1041E00010B146A0FDF70EFC04F0800010B145A010
:1041F000FDF708FC04F0400010B144A0FDF702FCFC
:1042000004F0200010B143A0FDF7FCFB04F0100007
:1042100010B143A0FDF7F6FB04F0080010B143A075
:10422000FDF7F0FB04F0040010B143A0FDF7EAFB3A
:1042300004F0020010B143A0FDF7E4FB04F001001C
:1042400010B143A0FDF7DEFB05F4806010B143A080
:10425000FDF7D8FB05F4007010B142A0FDF7D2FBCA
:1042600005F4807010B141A0FDF7CCFB05F0800093
:1042700010B140A0FDF7C6FB05F0400010B13FA013
:10428000FDF7C0FB05F0200010B13EA0FDF7BAFB22
:1042900005F0100010B13EA0FDF7B4FB05F00800DA
:1042A00010B13EA0FDF7AEFB05F0040010B13EA03A
:1042B000FDF7A8FB05F0020010B13EA0FDF7A2FB40
:1042C00005F0010010B13EA0FDF79CFB7FBD000092
:1042D0006C6F6F705F636F756E743A20256C750D2F
:1042E0000A0000000A0D4641554C540A0D0000001A
:1042F0005644535F4F43500A0D0000004744460A9E
:104300000D00000055564C4F0A0D00004F54534409
:104310000A0D00005644535F48410A0D000000009A
:104320005644535F4C410A0D000000005644535F51
:1043300048420A0D000000005644535F4C420A0DEB
:10434000000000005644535F48430A0D000000007F
:104350005644535F4C430A0D0000000053415F4F29
:10436000430A0D0053425F4F430A0D0053435F4F12
:10437000430A0D004F54570A0D0000004350555694
:104380000A0D00005647535F48410A0D0000000027
:104390005647535F4C410A0D000000005647535FDB
:1043A00048420A0D000000005647535F4C420A0D78
:1043B000000000005647535F48430A0D000000000C
:1043C0005647535F4C430A0D0000000007B54FF4F9
:1043D0000041684600F014F80EBD07B54FF40841DF
:1043E000684600F00DF80EBD1FB51C464FF40040A6
:1043F00040EAC42081B2684600F002F804B010BD63
:1044000070B504460D4625804FF48051074800F0F2
:104410004BFFA21C2146064802F0EFFD4FF48051ED
:10442000024800F043FF608870BD0000000C0140AE
:10443000003800402DE9FF4F81B01C460EAD95E8D5
:10444000E00F4FF4405040EA842040EA452040EA23
:10445000062040EA871040EA481040EA091040EA86
:10446000CA0040EA8B001599084380B2009001A869
:104470000099FFF7C5FF05B0BDE8F08F2DE9FF4FAC
:1044800081B01C460EAD95E8E00F4FF4805040EA35
:10449000442040EA052040EAC61040EA471040EABE
:1044A000081040EAC90040EA8A0040EA4B0015992A
:1044B000084380B2009001A80099FFF7A1FF05B062
:1044C000BDE8F08F2DE9FF471C460CAD95E8E001F3
:1044D0004FF4205040EA842040EA052040EA86104C
:1044E00040EA071040EA08001FFA80F9494668468A
:1044F000FFF786FFBDE8FF877FB51C46089D45EAAC
:10450000C42081B26846FFF77BFF7FBD10B50CA0C9
:10451000FDF778FA0BA0FDF775FA0EA0FDF772FA19
:1045200011A0FDF76FFA17A0FDF76CFA19A0FDF7BF
:1045300069FA1FA0FDF766FA24A0FDF763FA10BD23
:104540000D0A000020436F6D6D616E64733A0D0AB1
:1045500000000000206D2020202D204D6F746F7210
:10456000204D6F64650D0A0020632020202D20431C
:10457000616C69627261746520456E636F64657217
:104580000D0A000020732020202D205365747570C3
:104590000D0A000020652020202D20446973706CD6
:1045A000617920456E636F6465720D0A000000003A
:1045B000207A2020202D20536574205A65726F20A8
:1045C000506F736974696F6E0D0A00002065736324
:1045D000202D204578697420746F204D656E750D0F
:1045E0000A00000000B52DED028B85B098A0FDF704
:1045F00009FA9EA0A1A1A2A3A2A2CDE90010A4A1A4
:10460000A5A0FDF7FFF9ACA0FDF7FCF9AD4890EDD2
:10461000110A10EE101A0846FBF70BFF41EC180BBD
:104620008DED028BA8A0A9A3A9A2ACA10090ACA07B
:10463000FDF7E8F9A34890ED0E0A10EE101A0846AF
:10464000FBF7F7FE41EC180B8DED028B9EA09FA3AC
:10465000ABA2B1A10090B1A0FDF7D4F9B7A0FDF7CE
:10466000D1F9984890ED020A10EE101A0846FBF7AF
:10467000E0FE41EC180B8DED028BB4A0B5A3B6A201
:10468000BBA10090BBA0FDF7BDF98E4890ED030AD9
:1046900010EE101A0846FBF7CCFE41EC180B8DED1E
:1046A000028BBCA0BDA3BEA2C2A10090B1A0FDF729
:1046B000A9F9844890ED140A10EE101A0846FBF789
:1046C000B8FE41EC180B8DED028B7FA07EA3BAA241
:1046D000C0A10090A7A0FDF795F97A4890ED160AC1
:1046E00010EE101A0846FBF7A4FE41EC180B8DEDF6
:1046F000028B75A074A3B8A2BFA100909DA0FDF786
:1047000081F9704890ED170A10EE101A0846FBF771
:1047100090FE41EC180B8DED028BB8A09FA3B9A2BF
:10472000BFA1009093A0FDF76DF9664890ED180ABF
:1047300010EE101A0846FBF77CFE41EC180B8DEDCD
:10474000028BB8A095A3B8A2BFA1009089A0FDF7E5
:1047500059F95C4890ED060A10EE101A0846FBF76E
:1047600068FE41EC180B8DED028BB8A08BA3B9A2AB
:10477000BEA100907FA0FDF745F9524890ED080AD0
:1047800010EE101A0846FBF754FE41EC180B8DEDA5
:10479000028BB7A04DA3B7A2BDA1009075A0FDF7F5
:1047A00031F9484890ED090A10EE101A0846FBF757
:1047B00040FE41EC180B8DED028BB6A077A3B7A29B
:1047C000BCA100906BA0FDF71DF93E4890ED120AC8
:1047D00010EE101A0846FBF72CFE41EC180B8DED7D
:1047E000028BB5A06DA3B6A2BBA1009061A0FDF79E
:1047F00009F9BAA0FDF706F9BB484068BBA133A38D
:10480000BBA2CDE90010BCA1BCA0FDF7FBF8B648E7
:104810008068B6A12DA3C1A2CDE90010C2A1B7A0A6
:10482000FDF7F0F8B048C068C0A128A3C1A2CDE947
:104830000010C8A1C8A0FDF7E5F8CE48FDF7E2F8E2
:10484000CDA0FDF7DFF805B0BDEC028B00BD000088
:104850000D0A20436F6E66696775726174696F6EC9
:10486000204F7074696F6E73200A0D006375727249
:10487000656E742076616C75650000006D6178006E
:104880006D696E00706172616D6574657200000023
:10489000707265666978000020252D347320252DFF
:1048A00033317320252D357320252D367320252D8A
:1048B00032730D0A000000000D0A204D6F746F72F4
:1048C0003A0D0A00280000202D00000030000000F2
:1048D0004765617220526174696F000067000000D3
:1048E00020252D347320252D33317320252D35734C
:1048F00020252D367320252E33660A0D000000007A
:10490000546F7271756520436F6E7374616E74209D
:10491000284E2D6D2F4129006B00000020252D34DD
:104920007320252D33317320252D357320252D3609
:104930007320252E35660A0D000000000D0A204365
:104940006F6E74726F6C3A0D0A00000032303030B6
:10495000000000003130300043757272656E7420C3
:1049600042616E6477696474682028487A2900007F
:104970006200000020252D347320252D3331732053
:10498000252D357320252D367320252E31660A0DF1
:104990000000000036302E3000000000302E3000C5
:1049A00043757272656E74204C696D69742028417C
:1049B000290000006C0000004D617820506F736981
:1049C00074696F6E20536574706F696E74202872FD
:1049D00061642900700000004D61782056656C6F9D
:1049E0006369747920536574706F696E74202872DE
:1049F0006164292F730000007600000031303030F0
:104A00002E3000004D617820506F736974696F6EAD
:104A1000204761696E20284E2D6D2F726164290038
:104A200078000000352E30004D61782056656C6F9F
:104A300063697479204761696E20284E2D6D2F724D
:104A400061642F73290000006400000033332E30AE
:104A50000000000046572043757272656E74204C4A
:104A6000696D69742028412900000000660000007B
:104A70003135300054656D70204375746F66662063
:104A8000284329202830203D206E6F6E65290000C4
:104A90006800000034302E3000000000436F6E7458
:104AA000696E756F75732043757272656E74202818
:104AB000412900006300000032302E300000000069
:104AC00043616C6962726174696F6E2043757272C2
:104AD000656E742028412900610000000D0A204302
:104AE000414E3A0D0A000000280100203132370003
:104AF00043414E20494400006900000020252D3428
:104B00007320252D33317320252D357320252D3627
:104B10007320252D35690A0D0000000043414E2009
:104B200054582049440000006D00000031303030FE
:104B30003030000043414E2054696D656F7574201C
:104B4000286379636C6573292830203D206E6F6E71
:104B5000652900007400000020252D347320252DC8
:104B600033317320252D357320252D367320256490
:104B70000A0D00002886000856414C554553204E2A
:104B80004F542041435449564520554E54494C20DA
:104B9000504F574552204359434C4521200A0D0A96
:104BA0000D00000010B52C4B1B6883432A4C23607A
:104BB000231D1B688343241D2360231D1B6883431F
:104BC000241D2360231D1B688343241D236011B112
:104BD00001290ED105E0204B1B6803431E4C2360C6
:104BE00008E01D4B1B1D1B6803431B4C241D236049
:104BF00000E000BF00BF22B1012A0FD0022A27D156
:104C000019E0154B08331B680343134C0834236029
:104C1000231D1B688343241D23601AE00E4B0833B9
:104C20001B6883430C4C08342360231D1B6803431B
:104C3000241D23600DE0084B08331B680343064C1A
:104C400008342360231D1B680343241D236000E0F8
:104C500000BF00BF10BD0000000401400149086012
:104C6000704700001404014001460748006800EA4C
:104C7000010205481438006800EA010312B10BB1C3
:104C8000012070470020FCE714040140B0EE401AF8
:104C9000B4EEE01AF1EE10FA02DDB0EE410A704710
:104CA000B0EE600AFBE7B0EE401AB4EEE01AF1EEA7
:104CB00010FA02D2B0EE410A7047B0EE600AFBE78C
:104CC00010B52DED028B044694ED380AD4ED390A67
:104CD00070EE600A94ED3A0A94ED211A01EE200A72
:104CE00084ED3A0AD4ED3A0AB0EE600ADFED1C0A10
:104CF000FFF7D9FFF0EE408A1A4890ED060AB1EEB0
:104D0000400AF0EE400AB0EE680AFFF7BFFF84EDFC
:104D10003A0A94ED3A0A84ED290AD4ED3C0A60EE91
:104D2000A00A94ED291AD4ED291A41EE610AB0EED9
:104D3000600AFDF775F9B0EE408AD4ED2A0AB0EEAC
:104D4000600AF0EE480AFFF7AEFFF0EE408AF1EE9F
:104D5000480AFFF79BFF84ED2A0ABDEC028B10BDC9
:104D600000000000280000200FB50421019801FB7D
:104D7000030090ED000A0FBD0FB5019850F8230015
:104D800004B000BD10B5044600F0DCF8002020702F
:104D900010BD0000072900D907218160024A426046
:104DA000002202707047000000C0030810B50446DE
:104DB00000F050F940F2073000F0B4F8606800F0FD
:104DC000D7F80120207010BD1FB52DED020B2DED81
:104DD000028B82B01C46B0EE408A8DED018A04231E
:104DE000079A03FB0420019900F056F902B0BDECCC
:104DF000028B06B010BD3FB581B01C46089D0095E2
:104E00000423029A03FB0420009900F045F905B041
:104E100030BD014671EE602AF0EE621AB0EE602AF3
:104E200030EE423A01208840401E02EE900AF8EE31
:104E3000E22A63EE222A82EEA13AFDEEC32A12EEA6
:104E4000900A7047F0EE401AF4EEE01AF1EE10FA14
:104E50000ADDF4EEC11AF1EE10FA02DDB0EE610ADD
:104E60007047B0EE410AFBE7F4EEC10AF1EE10FA2A
:104E700002DDB0EE600AF3E7B0EE410AF0E700B5FC
:104E80000346012200BF00F00BF802465B1E012A18
:104E900001D1002BF7D1012A00D10422104600BD18
:104EA00000200A49C96801F0010109B101200CE0A4
:104EB0000649C96801F0100109B1032005E0034962
:104EC000C96801F0040101B10220704700200240CE
:104ED00000B50346012200BF00F00CF802465B1E3D
:104EE000012A01D1002BF7D1012A00D1042210465A
:104EF00000BD000000200A49C96C01F0010109B1A0
:104F000001200CE00649C96C01F0100109B1032031
:104F100005E00349C96C01F0040101B102207047AA
:104F200000200240064A02EB9011096800F01F03BE
:104F300001229A401143024B03EB9012116070471B
:104F4000002002400848006940F0800006490861DE
:104F500006480088B0F5007F04D90846006D40F08F
:104F6000800008657047000000200240E0F7FF1F46
:104F700030B5054633480088B0F5007F44D9324843
:104F800085421CD23148FFF77AFF0446002C56D1E7
:104F90002F48006940F002002D490861084645612C
:104FA000006940F0400008612848FFF768FF0446A8
:104FB0002748006920F00200254908613FE02348A6
:104FC000FFF786FF0446002C39D12148006D40F0E0
:104FD00002001F49086508464565C06900F00200E7
:104FE00008B1084645611A48006D40F04000184974
:104FF00008651648FFF76CFF04461548006D20F061
:105000000200134908651AE01048FFF738FF04460C
:10501000ACB90F48006940F002000D49086108462C
:105020004561006940F0400008610848FFF727FF2C
:1050300004460748006920F002000549086120463F
:1050400030BD0000E0F7FF1FFFFF07080000FF0F63
:10505000002002400C48006900F0800020B10B489D
:10506000094948600A4848600A480088B0F5007F4E
:1050700009D90548006D00F0800020B103480249BD
:105080004864034848647047002002402301674594
:10509000AB89EFCDE0F7FF1F70B504460D46002643
:1050A00027480088B0F5007F31D92648844217D2BE
:1050B0002548FFF7E4FE0646002E3ED1234800694E
:1050C00040F001002149086125601F48FFF7D7FE25
:1050D00006461E48006920F001001C4908612CE0CA
:1050E0001948FFF7F5FE06463EBB1848006D40F034
:1050F00001001649086525601348FFF7E9FE0646DA
:105100001248006D20F001001049086515E00E48B6
:10511000FFF7B5FE064686B90C48006940F001006D
:105120000A49086125600848FFF7A9FE06460748B6
:10513000006920F0010005490861304670BD00009B
:10514000E0F7FF1FFFFF07080000FF0F00200240ED
:10515000F0EE401AF4EEE01AF1EE10FA0AD2F4EE94
:10516000C11AF1EE10FA02D2B0EE610A7047B0EE49
:10517000410AFBE7F4EEC10AF1EE10FA02D2B0EEFA
:10518000600AF3E7B0EE410AF0E738B504468DF85F
:10519000000069460320ABBE204638BD3EB504463C
:1051A0002078062838D2DFE800F0031A0A3706090B
:1051B000FFF7ACF930E0FFF715FA2DE02CE01748C7
:1051C00001F0FCFC164801680091416801910089DA
:1051D000ADF80800029A0098FEF76AFF1CE0002074
:1051E000104981F8220081F8210008740E49C1F8A5
:1051F000D8004FF400710C48DC30FAF7D0FF0848B3
:1052000001680091416801910089ADF80800029A97
:105210000098FEF74DFF00BF00BF3EBD38050020DF
:10522000480B0020540B0020680800203EB50446BF
:105230002078062831D2DFE800F003210C3006097F
:105240000120E07029E00120E07026E00120E070FC
:1052500023E00120E070124801680091416801914B
:105260000089ADF80800029A0098FEF711FF0D487A
:1052700001F0A4FC0B4802F019FD0EE0084801689B
:105280000091416801910089ADF80800029A0098E8
:10529000FEF7FEFE0120E07000BF00BF3EBD000033
:1052A000480B0020380500204161704701617047BC
:1052B00010B500228B071C0F0F2303FA04F20429F8
:1052C0000EDA204B9B6893431E4CA36023469B68D9
:1052D0008C07240F00FA04F423431A4CA3602FE038
:1052E00008290EDA174BDB689343164CE36023461C
:1052F000DB688C07240F00FA04F42343114CE360AD
:105300001EE00C290EDA0F4B1B6993430D4C2361F1
:1053100023461B698C07240F00FA04F42343094C2D
:1053200023610DE0074B5B699343064C63612346A1
:105330005B698C07240F00FA04F42343014C63617A
:1053400010BD000000000140F0B5044616460025DF
:10535000002201F00F0501F0100747B1042E05D11E
:1053600045F00305E76B1F43E76300E0354300208A
:105370001EE0012787401F40C7B122684FEA800C1A
:105380000F2707FA0CF7BA43870005FA07F73A43E5
:10539000282904D1012787401F40676105E048297B
:1053A00003D1012787401F4027612260471CB8B204
:1053B0000828DED3082022E0012787401F40E7B1FC
:1053C0006268A0F108074FEA870C0F2707FA0CF76D
:1053D000BA43A0F10807BF0005FA07F73A432829A6
:1053E00004D1012787401F40676105E0482903D1A8
:1053F000012787401F4027616260471CB8B2102810
:10540000DAD3F0BDF0B50A460023002400210025C0
:1054100000F00046B6F1004F02D11D4EF16901E0E7
:105420001B4E7168C0F3034583B200F44016B6F515
:10543000401F08D121F0E061154E766826F0E06645
:10544000134F7E6012E000F48016B6F5801F06D17F
:10545000032606FA05F4A14341F0E06106E0460D9B
:10546000360103FA06F6B14341F0E06122B1460D80
:10547000360103FA06F6314300F00046B6F1004F5C
:1054800002D1034EF16101E0014E7160F0BD0000F8
:105490000000014070B52DED088B04469FED450AD4
:1054A00084ED1F0A9FED430A84ED200A424890EDE7
:1054B000020ADFED420A20EE200A84ED1D0A90ED7B
:1054C000020ADFED3E0A20EE200A84ED1E0A90ED6E
:1054D000020ADFED3B0A60EE200A9FED3A1AB7EEB2
:1054E000000A00EEC10AF7EE000A80EE801AB7EE5D
:1054F000000A30EE410A84ED220A94ED1F0ADFED26
:10550000320A20EE200A84ED210A30480068C4F8EF
:10551000C800294890ED030ADFED2D0AB4EEE00A39
:10552000F1EE10FA04D89FED2B0A84ED1C0A03E07B
:105530009FED290A84ED1C0A002535E000EE105A83
:10554000B8EEC00ADFED250A20EE200ADFED240ABE
:1055500080EE201A11EE106A3046FAF76AFF41EC2D
:105560001B0BB0EE4B0AF0EE6B0AFCF79DFAB0EEA7
:1055700040AAF0EE60AA9FED1B0B53EC102B51ECF0
:105580001A0BFAF7CBFE41EC190B9FED180B53ECFD
:10559000102BFAF71CFE41EC180BFAF75DFF04F133
:1055A000F40141F825006D1C802DC7DBBDEC088B94
:1055B00070BD0000EC51383D2800002017B7D138ED
:1055C000D1CB0B38DB0FC940CDCCCC3D280100201E
:1055D00000002042FFFFA43CFFFF243D000000BC70
:1055E0006F12033D000000403333F33F0000000022
:1055F0000000F03F70B52DED028B05460C46B0EE75
:10560000408AD5ED000A60EEA00A94ED001AD4EDB0
:10561000001A41EE210AB0EE600AFCF701FDF0EE3F
:10562000408AF4EEC88AF1EE10FA0FDD95ED000A1B
:1056300020EE080AC0EE280AC5ED000A94ED000A23
:1056400020EE080AC0EE280AC4ED000ABDEC028B69
:1056500070BD00000EB501F007FEFBF760FFFBF721
:105660009DFEFCF72FF9FCF731F8FBF7F3FDFBF794
:1056700093FFFBF7B1FFFBF767FCFBF761FDFBF75F
:105680007DFEF1A0FCF7BEF9F2A0FCF7BBF9012307
:1056900000220221F7A0FCF7B5F90621FC4800F032
:1056A0006FFCFB480FC800F073FCFA484069401CCF
:1056B00010B90020F7494861F6480069401C10B94C
:1056C0000020F4490861F44890ED020A10EE101A27
:1056D0000846FCF7BFF948B9EF4890ED020AFFEE23
:1056E000000AB4EE600AF1EE10FA04D19FEDEB0A65
:1056F000E94880ED020AE84890ED030A10EE101A1E
:105700000846FCF7A7F948B9E34890ED030AFFEE15
:10571000000AB4EE600AF1EE10FA04D19FEDE00A3F
:10572000DD4880ED030ADC4890ED060A10EE101A01
:105730000846FCF78FF948B9D74890ED060AFFEE06
:10574000000AB4EE600AF1EE10FA04D19FEDD50A1A
:10575000D14880ED060ACF484068401C10B90120AE
:10576000CC494860CB488068401C10B90020C9492A
:105770008860C848C068401C18B94FF47A70C549A1
:10578000C860C54890ED070A10EE101A0846FCF7ED
:1057900061F948B9C04890ED070AFFEE000AB4EE7F
:1057A000600AF1EE10FA04D19FEDBE0ABA4880ED0E
:1057B000070AB94890ED080A10EE101A0846FCF7DF
:1057C00049F948B9B44890ED080AFFEE000AB4EE72
:1057D000600AF1EE10FA04D19FEDB30AAE4880EDF5
:1057E000080AAD4890ED090A10EE101A0846FCF7B9
:1057F00031F948B9A84890ED090AFFEE000AB4EE65
:10580000600AF1EE10FA04D1B2EE0C0AA24880ED63
:10581000090AA14890ED120A10EE101A0846FCF78A
:1058200019F948B99C4890ED120AFFEE000AB4EE4F
:10583000600AF1EE10FA04D1B1EE040A964880ED48
:10584000120A954890ED0A0A10EE101A0846FCF765
:1058500001F948B9904890ED0A0AFFEE000AB4EE4B
:10586000600AF1EE10FA04D1B3EE050A8A4880ED21
:105870000A0A894890ED110A10EE101A0846FCF742
:10588000E9F848B9844890ED110AFFEE000AB4EE39
:10589000600AF1EE10FA04D1B7EE000A7E4880EDFE
:1058A000110A7D4890ED0E0A10EE101A0846FCF71A
:1058B000D1F848B9784890ED0E0AFFEE000AB4EE30
:1058C000600AF1EE10FA04D1B7EE000A724880EDDA
:1058D0000E0A714890ED170A10EE101A0846FCF7F0
:1058E000B9F848B96C4890ED170AFFEE000AB4EE1B
:1058F000600AF1EE10FA04D19FED6C0A664880ED63
:10590000170A654890ED180A10EE101A0846FCF7C1
:10591000A1F848B9604890ED180AFFEE000AB4EE0D
:10592000600AF1EE10FA04D1B1EE040A5A4880ED93
:10593000180A594890ED140A10EE101A0846FCF7A0
:1059400089F820B1B2EE090A534880ED140A524892
:1059500090ED130A10EE101A0846FCF77BF820B100
:10596000BAEE090A4C4880ED130A4B4890ED160A2E
:1059700010EE101A0846FCF76DF820B19FED4C0AA6
:10598000454880ED160A444890ED150A10EE101AAD
:105990000846FCF75FF820B19FED460A3E4880EDCF
:1059A000150A4548FFF776FD4FF438714348FAF77A
:1059B000F6FB384800694249C1F8D40035484069CF
:1059C000C1F8D800344890ED0A0A084680ED1A0A5A
:1059D000642100F0C1FF4FF400722E49183138489D
:1059E000DC30FAF7C3FB3748016800914168019148
:1059F0000089ADF80800029A0098FEF769FB32486A
:105A0000FDF78CFF3148FEF70BF8002211461920F4
:105A100000F08EF801220021282000F089F80222EF
:105A20000021142000F084F800220221262000F03A
:105A30007FF8062026490870002048700120C870B1
:105A4000002400256DE000000D0A0D0A0D0A0D0A64
:105A50000D0A00003E3E2041746865616E204D6F66
:105A6000746F7220436F6E74726F6C6C6572203C41
:105A70003C0D0A003E3E2056657273696F6E3A20F7
:105A800025642E25642E2564203C3C0D0A00000070
:105A900028050020280100202800002000007A446A
:105AA00000002042000000000000FA420000FA431B
:105AB00000008242000082C23805002080370020AA
:105AC00068080020480B0020743A0020603A00204B
:105AD000580800204FF47A70FEF74AF9641C114808
